:0100000012ED
:0100010001FD
:0100020002FB
:0100030003F9
:0100040004F7
:0100050005F5
:0100060006F3
:0100070007F1
:0100080008EF
:0100090009ED
:01000A000AEB
:01000B000BE9
:01000C000CE7
:01000D000DE5
:01000E000EE3
:01000F000FE1
:0100100010DF
:0100110011DD
:0100120012DB
:0100130013D9
:0100140014D7
:0100150015D5
:0100160016D3
:0100170017D1
:0100180018CF
:0100190019CD
:01001A001ACB
:01001B001BC9
:01001C001CC7
:01001D001DC5
:01001E001EC3
:01001F001FC1
:0100200020BF
:0100210021BD
:0100220022BB
:0100230023B9
:0100240024B7
:0100250025B5
:0100260026B3
:0100270027B1
:0100280028AF
:0100290029AD
:01002A002AAB
:01002B002BA9
:01002C002CA7
:01002D002DA5
:01002E002EA3
:01002F002FA1
:0100300000CF
:0100310001CD
:0100320002CB
:0100330003C9
:0100340004C7
:0100350005C5
:0100360006C3
:0100370007C1
:0100380008BF
:0100390009BD
:01003A000ABB
:01003B000BB9
:01003C000CB7
:01003D000DB5
:01003E000EB3
:01003F000FB1
:0100400010AF
:0100410011AD
:0100420012AB
:0100430013A9
:0100440014A7
:0100450015A5
:0100460016A3
:0100470017A1
:01004800189F
:01004900199D
:01004A001A9B
:01004B001B99
:01004C001C97
:01004D001D95
:01004E001E93
:01004F001F91
:01005000208F
:01005100218D
:01005200228B
:010053002389
:010054002487
:010055002585
:010056002683
:010057002781
:01005800287F
:01005900297D
:01005A002A7B
:01005B002B79
:01005C002C77
:01005D002D75
:01005E002E73
:01005F002F71
:01006000009F
:01006100019D
:01006200029B
:010063000399
:010064000497
:010065000595
:010066000693
:010067000791
:01006800088F
:01006900098D
:01006A000A8B
:01006B000B89
:01006C000C87
:01006D000D85
:01006E000E83
:01006F000F81
:01007000107F
:01007100117D
:01007200127B
:010073001379
:010074001477
:010075001575
:010076001673
:010077001771
:01007800186F
:01007900196D
:01007A001A6B
:01007B001B69
:01007C001C67
:01007D001D65
:01007E001E63
:01007F001F61
:01008000205F
:01008100215D
:01008200225B
:010083002359
:010084002457
:010085002555
:010086002653
:010087002751
:01008800284F
:01008900294D
:01008A002A4B
:01008B002B49
:01008C002C47
:01008D002D45
:01008E002E43
:01008F002F41
:01009000006F
:01009100016D
:01009200026B
:010093000369
:010094000467
:010095000565
:010096000663
:010097000761
:01009800085F
:01009900095D
:01009A000A5B
:01009B000B59
:01009C000C57
:01009D000D55
:01009E000E53
:01009F000F51
:0100A000104F
:0100A100114D
:0100A200124B
:0100A3001349
:0100A4001447
:0100A5001545
:0100A6001643
:0100A7001741
:0100A800183F
:0100A900193D
:0100AA001A3B
:0100AB001B39
:0100AC001C37
:0100AD001D35
:0100AE001E33
:0100AF001F31
:0100B000202F
:0100B100212D
:0100B200222B
:0100B3002329
:0100B4002427
:0100B5002525
:0100B6002623
:0100B7002721
:0100B800281F
:0100B900291D
:0100BA002A1B
:0100BB002B19
:0100BC002C17
:0100BD002D15
:0100BE002E13
:0100BF002F11
:0100C000003F
:0100C100013D
:0100C200023B
:0100C3000339
:0100C4000437
:0100C5000535
:0100C6000633
:0100C7000731
:0100C800082F
:0100C900092D
:0100CA000A2B
:0100CB000B29
:0100CC000C27
:0100CD000D25
:0100CE000E23
:0100CF000F21
:0100D000101F
:0100D100111D
:0100D200121B
:0100D3001319
:0100D4001417
:0100D5001515
:0100D6001613
:0100D7001711
:0100D800180F
:0100D900190D
:0100DA001A0B
:0100DB001B09
:0100DC001C07
:0100DD001D05
:0100DE001E03
:0100DF001F01
:0100E00020FF
:0100E10021FD
:0100E20022FB
:0100E30023F9
:0100E40024F7
:0100E50025F5
:0100E60026F3
:0100E70027F1
:0100E80028EF
:0100E90029ED
:0100EA002AEB
:0100EB002BE9
:0100EC002CE7
:0100ED002DE5
:0100EE002EE3
:0100EF002FE1
:0100F000000F
:0100F100010D
:0100F200020B
:0100F3000309
:0100F4000407
:0100F5000505
:0100F6000603
:0100F7000701
:0100F80008FF
:0100F90009FD
:0100FA000AFB
:0100FB000BF9
:0100FC000CF7
:0100FD000DF5
:0100FE000EF3
:0100FF000FF1
:0101000010EE
:0101010011EC
:0101020012EA
:0101030013E8
:0101040014E6
:0101050015E4
:0101060016E2
:0101070017E0
:0101080018DE
:0101090019DC
:01010A001ADA
:01010B001BD8
:01010C001CD6
:01010D001DD4
:01010E001ED2
:01010F001FD0
:0101100020CE
:0101110021CC
:0101120022CA
:0101130023C8
:0101140024C6
:0101150025C4
:0101160026C2
:0101170027C0
:0101180028BE
:0101190029BC
:01011A002ABA
:01011B002BB8
:01011C002CB6
:01011D002DB4
:01011E002EB2
:01011F002FB0
:0101200000DE
:0101210001DC
:0101220002DA
:0101230003D8
:0101240004D6
:0101250005D4
:0101260006D2
:0101270007D0
:0101280008CE
:0101290009CC
:01012A000ACA
:01012B000BC8
:01012C000CC6
:01012D000DC4
:01012E000EC2
:01012F000FC0
:0101300010BE
:0101310011BC
:0101320012BA
:0101330013B8
:0101340014B6
:0101350015B4
:0101360016B2
:0101370017B0
:0101380018AE
:0101390019AC
:01013A001AAA
:01013B001BA8
:01013C001CA6
:01013D001DA4
:01013E001EA2
:01013F001FA0
:01014000209E
:01014100219C
:01014200229A
:010143002398
:010144002496
:010145002594
:010146002692
:010147002790
:01014800288E
:01014900298C
:01014A002A8A
:01014B002B88
:01014C002C86
:01014D002D84
:01014E002E82
:01014F002F80
:0101500000AE
:0101510001AC
:0101520002AA
:0101530003A8
:0101540004A6
:0101550005A4
:0101560006A2
:0101570007A0
:01015800089E
:01015900099C
:01015A000A9A
:01015B000B98
:01015C000C96
:01015D000D94
:01015E000E92
:01015F000F90
:01016000108E
:01016100118C
:01016200128A
:010163001388
:010164001486
:010165001584
:010166001682
:010167001780
:01016800187E
:01016900197C
:01016A001A7A
:01016B001B78
:01016C001C76
:01016D001D74
:01016E001E72
:01016F001F70
:01017000206E
:01017100216C
:01017200226A
:010173002368
:010174002466
:010175002564
:010176002662
:010177002760
:01017800285E
:01017900295C
:01017A002A5A
:01017B002B58
:01017C002C56
:01017D002D54
:01017E002E52
:01017F002F50
:01018000007E
:01018100017C
:01018200027A
:010183000378
:010184000476
:010185000574
:010186000672
:010187000770
:01018800086E
:01018900096C
:01018A000A6A
:01018B000B68
:01018C000C66
:01018D000D64
:01018E000E62
:01018F000F60
:01019000105E
:01019100115C
:01019200125A
:010193001358
:010194001456
:010195001554
:010196001652
:010197001750
:01019800184E
:01019900194C
:01019A001A4A
:01019B001B48
:01019C001C46
:01019D001D44
:01019E001E42
:01019F001F40
:0101A000203E
:0101A100213C
:0101A200223A
:0101A3002338
:0101A4002436
:0101A5002534
:0101A6002632
:0101A7002730
:0101A800282E
:0101A900292C
:0101AA002A2A
:0101AB002B28
:0101AC002C26
:0101AD002D24
:0101AE002E22
:0101AF002F20
:0101B000004E
:0101B100014C
:0101B200024A
:0101B3000348
:0101B4000446
:0101B5000544
:0101B6000642
:0101B7000740
:0101B800083E
:0101B900093C
:0101BA000A3A
:0101BB000B38
:0101BC000C36
:0101BD000D34
:0101BE000E32
:0101BF000F30
:0101C000102E
:0101C100112C
:0101C200122A
:0101C3001328
:0101C4001426
:0101C5001524
:0101C6001622
:0101C7001720
:0101C800181E
:0101C900191C
:0101CA001A1A
:0101CB001B18
:0101CC001C16
:0101CD001D14
:0101CE001E12
:0101CF001F10
:0101D000200E
:0101D100210C
:0101D200220A
:0101D3002308
:0101D4002406
:0101D5002504
:0101D6002602
:0101D7002700
:0101D80028FE
:0101D90029FC
:0101DA002AFA
:0101DB002BF8
:0101DC002CF6
:0101DD002DF4
:0101DE002EF2
:0101DF002FF0
:0101E000001E
:0101E100001D
:0101E200001C
:0101E300001B
:0101E400001A
:0101E5000019
:0101E6000018
:0101E7000017
:0101E8000016
:0101E9000015
:0101EA000014
:0101EB000013
:0101EC000012
:0101ED000011
:0101EE000010
:0101EF00000F
:0101F000000E
:0101F100000D
:0101F200000C
:0101F300000B
:0101F400000A
:0101F5000009
:0101F6000008
:0101F7000007
:0101F8000006
:0101F9000005
:0101FA000004
:0101FB000003
:0101FC000002
:0101FD000001
:0101FE000000
:0101FF0000FF
:00000001FF
